:020000040000FA
:02000000F32FDC
:100A0A000234033464008001840A040603190034A2
:100A1A000406082D8312031385142130F000F00B0D
:100A2A00142D8312031385100800F101F10A0C300A
:100A3A001226F101093012260730FB007B08F1006B
:100A4A000B3012260800F700710AF2008030F3001A
:100A5A000030F400332D740DF40CF30CF20B302D2E
:100A6A007308F50070087707F600760884007508A1
:100A7A00831380040800F601F11F442D452D4C2DE7
:100A8A00F009F109F00A0319F10AF601F60AF31F4F
:100A9A004F2D502D592DF209F309F20A0319F30AC1
:100AAA000130F4007408F606F701F80170087104C1
:100ABA000319602D612D982DF501F50A6F2D01306E
:100ACA000310F00DF10DFF3E031D652D0130F400FA
:100ADA007408F507F11F722D732D642D0130031070
:100AEA00F70DF80DFF3E031D742D71087302031DE7
:100AFA00802D70087202031C832D842D8B2D7008A3
:100B0A00F2027108031CF303F30277140130031095
:100B1A00F10CF00CFF3E031D8C2D0130F502031D74
:100B2A00972D982D732D760803199C2D9D2DA22D96
:100B3A00F709F809F70A0319F80A7808F10077089B
:100B4A00F000080083120313AE0026308400083038
:100B5A00FF0083138001840AFF0BAE2D8030A000B2
:100B6A002008AF00B001B1013108073CA000A00A7B
:100B7A00300AA10031082E07A200220884000008CA
:100B8A002F05A300A401CC2D0310A30DA40DA10BC6
:100B9A00C92DD22D240DA40CA30CA00BCF2D83128A
:100BAA0003132308A5003008263E84002508831372
:100BBA0080040130A0002008B10708303102031C6C
:100BCA00E72DE82DB92D2F08A0000310200CA10055
:100BDA002108AF000130A0002008B0070830300219
:100BEA00031CF82DF92DB82DB2013208263E8400D7
:100BFA0083130008A0002008F1003208013E1226E3
:100C0A00013083120313A0002008B2070830320211
:100C1A00031C102E112EFA2D0800FA00831203135A
:100C2A000510F601F7017A088039F2007208F4001B
:100C3A00803074060319222E262E831203130515FB
:100C4A00292E83120313051105142130F200F20B29
:100C5A002C2E8312031305107A08F2007207F30090
:100C6A007308FA000130F6070318F70A0030F7078D
:100C7A007708803AFF0080307F02031D462E083035
:100C8A007602031C492E4A2E182EF801F901710822
:100C9A008039F2007208F500803075060319562E65
:100CAA005A2E8312031305155D2E831203130511A1
:100CBA0005142130F200F20B602E83120313051083
:100CCA007108F2007207F3007308F1000130F807A7
:100CDA000318F90A0030F9077908803AFF008030D2
:100CEA007F02031D7A2E08307802031C7D2E7E2E89
:100CFA004C2E0F250800073083120313B300330864
:100D0A0083160313E900023083120313B300330876
:100D1A0083160313EA00A001023083120313B300FF
:100D2A00330883160313A1000730831203139F00AD
:100D3A00831603138501103086008B170B108B1551
:100D4A00E03084000830FF0083138001840AFF0B1F
:100D5A00A92E1A258312031310108F018E018316F0
:100D6A00031320086906031DBB2EBC2EFB2E210887
:100D7A006A06031DC12EC22EFB2E013083120313F5
:100D8A00B300330883160313ED072109680483129D
:100D9A000313B30083160313200868048312031392
:100DAA0033053F39B400340883160313E8000830CA
:100DBA00F0000030F100680883120313B300B40195
:100DCA003308F2003408F300402570088312031335
:100DDA00B500350883160313E9006808073983123A
:100DEA000313B300330883160313EA006A08F100F9
:100DFA006908F000E030282583160313EB011C2F45
:100E0A006B0883120313B3003307A03E84008313D5
:100E1A000008F000840A0008F100E03028250130BB
:100E2A0083120313B300330883160313EB076D0809
:100E3A006B02031C212F222F052F6D08FF3E831200
:100E4A000313B300330883160313EB006B08031D67
:100E5A002F2F302F312FA32F6B0883120313B300C8
:100E6A003307FE3EA03E840083130008B4008316B5
:100E7A0003136B0883120313B5003507A03E8400E1
:100E8A0034088000831603136B0883120313B3001C
:100E9A003307FF3EA03E84000008B4000314831603
:100EAA0003136B0DA03E84008312031334088000E1
:100EBA00013083160313EB026B08031D652F662F9F
:100ECA00312FA32F0130A002200807398312031300
:100EDA00B300330883160313A000B62F0130831220
:100EEA000313B300330883160313A1072108073934
:100EFA0083120313B400340883160313A100B62F18
:100F0A00013083120313B300330883160313A007B7
:100F1A002008073983120313B40034088316031315
:100F2A00A000B62F0130A10221080739831203134A
:100F3A00B300330883160313A100B62F0030003A1A
:100F4A000319A82FB62F0230003A0319672F013A66
:100F5A000319732F033A0319852F013A0319972F9F
:100F6A00B62FE030A725023083120313B5000430F0
:100F7A00B400BA30B300B30BC02FB40BC02FB50BFB
:100F8A00C02F83160313200883120313B300033000
:100F9A000310B30DFF3E031DCD2F83160313210843
:100FAA00831203133307B400340883160313E807C4
:100FBA00EB016B08E03E8400831380010130831249
:100FCA000313B300330883160313EB0708306B02CD
:100FDA00031CF02FF12FDE2FAF2E002883160313E8
:100FEA000525EC000625ED008313363084004630D3
:060FFA0007258301802E93
:02400E0050FF61
:00000001FF
