:020000040000FA
:020000000A28CC
:10000800FE00030EF2000A08F3003F2B0B288316AC
:100018000313F623EC00F723ED00F823EE00831317
:100028003D3084004D30EE23F801F90183011C288E
:100038000730831203139F008316031385011030C2
:1000480086008B170B108B15E03084000830FF00FA
:1000580083138001840AFF0B2C28D32383160313F0
:100068006C08031D38283928A72920086906031DAC
:100078003E283F287E2821086A06031D4428452873
:100088007E28013083120313BA003A08831603133B
:10009800EE072109680483120313BA0083160313B9
:1000A80020086804831203133A053F39BB003B0854
:1000B80083160313E8000830F4000030F5006808E0
:1000C80083120313BA00BB013A08F6003B08F70095
:1000D800D622740883120313BC003C08831603134A
:1000E800E9006808073983120313BA003A0883162F
:1000F8000313EA00EB01EB0AA52803146B0DA03EDD
:100108008400831300082106031D8B288C289D2852
:100118006B0883120313BA003A07A03E8400000854
:10012800831603132006031D9A289B289D28EC019B
:10013800EC0A013083120313BA003A08831603133A
:10014800EB076E086B02031CAA28AB288128EB0179
:10015800C4286B0883120313BA003A07A03E840030
:1001680083130008F400840A0008F500E030B72380
:10017800013083120313BA003A0883160313EB07FE
:100188006E086B02031CC928CA28AD286E08FF3EFA
:1001980083120313BA003A0883160313EB006B08A3
:1001A800031DD728D828D9284B296B088312031395
:1001B800BA003A07FE3EA03E840083130008BB0045
:1001C800831603136B0883120313BC003C07A03E7D
:1001D80084003B088000831603136B088312031303
:1001E800BA003A07FF3EA03E84000008BB00031493
:1001F800831603136B0DA03E8400831203133B0880
:100208008000013083160313EB026B08031D0D29D0
:100218000E29D9284B29013083160313A002200880
:10022800073983120313BA003A0883160313A00090
:1002380063290130BA003A0883160313A10721087D
:10024800073983120313BB003B0883160313A1006D
:1002580063290130BA003A0883160313A00720085F
:10026800073983120313BB003B0883160313A0004E
:100278006329013083160313A10221080739831269
:100288000313BA003A0883160313A10063296D0803
:1002980083120313BA00BB013B08003A031955291E
:1002A80063293A08003A03190F29013A03191D294D
:1002B800033A03192D29013A03193D2963298316A5
:1002C80003136A08F5006908F400E030B723E0304A
:1002D8006B22023083120313BC000430BB00BA3017
:1002E800BA00BA0B7529BB0B7529BC0B7529831687
:1002F8000313200883120313BA0003300310BA0D46
:10030800FF3E031D8229831603132108831203135A
:100318003A07BB003B0883160313E807EB016B0899
:10032800E03E840083138001013083120313BA0076
:100338003A0883160313EB0708306B02031CA52940
:10034800A62993293228E93083120313BA003A0800
:10035800F400A030BB003B08F500E0307D230330FB
:1003680083120313BA003A0883160313E000073018
:1003780083120313BA003A0883160313E1000E3000
:1003880083120313BA003A0883160313E2009C3061
:1003980083120313BA003A0883160313E300B83034
:1003A80083120313BA003A0883160313E400F030EB
:1003B80083120313BA003A0883160313E500E030EA
:1003C80083120313BA003A0883160313E600F830C1
:1003D80083120313BA003A0883160313E700E030C8
:1003E8006B2232280A2883120313A6000510A201E3
:1003F800A3018312031326088039F6007608A000AB
:10040800803020060319092A0D2A831203130515C3
:10041800102A83120313051105142130F600F60B78
:10042800132A8312031305102608F6007607F7002F
:100438007708A6000130A2070318A30A0030A30713
:100448002308803AFF0080307F02031D2D2A0830E0
:100458002202031C302A312AFD2983120313A40126
:10046800A50175088039F600760883120313A100E8
:10047800803021060319412A452A831203130515E2
:10048800482A83120313051105142130F600F60BD0
:100498004B2A8312031305107508F6007607F70038
:1004A8007708F5000130A4070318A50A0030A5074E
:1004B8002508803AFF0080307F02031D652A083036
:1004C8002402031C682A692A352AE32308008312B8
:1004D8000313B5002D3084000830FF00831380011A
:1004E800840AFF0B722A8030A7002708B600B701DC
:1004F800B8013808073CA700A70A370AA800380837
:100508003507A9002908840000083605AA00AB01B0
:10051800902A0310AA0DAB0DA80B8D2A962A2B0D35
:10052800AB0CAA0CA70B932A831203132A08AC005E
:1005380037082D3E84002C08831380040130A7005F
:100548002708B80708303802031CAB2AAC2A7D2AD2
:100558003608A7000310270CA8002808B6000130A9
:10056800A7002708B70708303702031CBC2ABD2A92
:100578007C2AB90139082D3E840083130008A7009E
:100588002708F5003908013EF721013083120313CB
:10059800A7002708B90708303902031CD42AD52A2E
:1005A800BE2A080083120313A201F51FDC2ADD2AE4
:1005B800E42AF409F509F40A0319F50AA201A20AC2
:1005C800F71FE72AE82AF12AF609F709F60A0319B4
:1005D800F70A0130A0002008A206A301A4017408AC
:1005E80075040319F82AF92A302BA101A10A072B4F
:1005F80001300310F40DF50DFF3E031DFD2A0130F7
:10060800A0002008A107F51F0A2B0B2BFC2A01309C
:100618000310A30DA40DFF3E031D0C2B75087702D4
:10062800031D182B74087602031C1B2B1C2B232B71
:100638007408F6027508031CF703F7022314013047
:100648000310F50CF40CFF3E031D242B0130A1020E
:10065800031D2F2B302B0B2B22080319342B352B82
:100668003A2BA309A409A30A0319A40A2408F5002C
:100678002308F40008008B130B1C432B442B752B09
:1006880083120313061E492B4A2B742B831603135C
:100698006C080319502B512B5B2B6C080319552B35
:1006A800572B0130582B0030F0007008EC00013057
:1006B800F0007008ED076D080339F1007108ED00CE
:1006C8006E2B0D30F100FB30F000F00B692BF10BB5
:1006D800692B6E2B83120313061A732B742B652B4D
:1006E8000B108B1773088A00720E8300FE0E7E0EA5
:1006F8000900F7007708840083138001770A8400D3
:1007080080017708023E840080017708033E840058
:1007180080017708043E840080017708053E840044
:1007280080017708063E840080017708073E840030
:1007380080010730F60074088400760880000230D3
:10074800F600740A84007608800075088400800129
:100758000230F600750A84007608800083160313B9
:10076800EE01EE0A0800F600750A83120313A000D2
:100778008030A1000030A200C42B220DA20CA10CD5
:10078800A00BC12B831203132108A300740876075A
:10079800A400240884002308831380040800F501BA
:1007A800F50A0C30F721F5010930F72107308312DB
:1007B8000313A7002708F5000B30F7210800831260
:1007C800031385142130F400F40BE82B8312031370
:1007D8008510080064008001840A040603190034A7
:0A07E8000406EF2B01340234013443
:02400E0050FF61
:00000001FF
