:020000040000FA
:020000000A28CC
:10000800FE00030EF2000A08F3007F2B0B2883166C
:1000180003133624ED003724EE003824EF00831351
:100028003D3084004D302E24F801F90183011C284D
:100038000730831203139F008316031385011030C2
:1000480086008B170B108B15E03084000830FF00FA
:1000580083138001840AFF0B2C28132483160313AF
:100068006D08031D38283928E72920086A06031D6A
:100078003E283F287E2821086B06031D4428452872
:100088007E28013083120313BA003A08831603133B
:10009800EF072109690483120313BA0083160313B7
:1000A80020086904831203133A053F39BB003B0853
:1000B80083160313E9000830F4000030F5006908DE
:1000C80083120313BA00BB013A08F6003B08F70095
:1000D8001623740883120313BC003C088316031309
:1000E800EA006908073983120313BA003A0883162D
:1000F8000313EB00EC01EC0AA52803146C0DA03ED9
:100108008400831300082106031D8B288C289D2852
:100118006C0883120313BA003A07A03E8400000853
:10012800831603132006031D9A289B289D28ED019A
:10013800ED0A013083120313BA003A088316031339
:10014800EC076F086C02031CAA28AB2881286F08EB
:10015800FF3E83120313BA003A0883160313EC0018
:100168006C08031DB828B928BA282C296C088312F2
:100178000313BA003A07FE3EA03E8400831300082A
:10018800BB00831603136C0883120313BC003C07DF
:10019800A03E84003B088000831603136C0883127A
:1001A8000313BA003A07FF3EA03E84000008BB00D4
:1001B8000314831603136C0DA03E840083120313EB
:1001C8003B088000013083160313EC026C08031D02
:1001D800EE28EF28BA282C29013083160313A00231
:1001E8002008073983120313BA003A088316031349
:1001F800A00044290130BA003A0883160313A10766
:100208002108073983120313BB003B088316031325
:10021800A10044290130BA003A0883160313A00745
:100228002008073983120313BB003B088316031306
:10023800A0004429013083160313A10221080739BD
:1002480083120313BA003A0883160313A100442942
:100258006E0883120313BA00BB013B08003A031966
:10026800362944293A08003A0319F028013A0319B3
:10027800FE28033A03190E29013A03191E294429B5
:1002880083160313E8016808E03E840083138001A5
:10029800013083120313BA003A0883160313E807E0
:1002A80008306802031C59295A294729EC01732987
:1002B8006C0883120313BA003A07A03E8400831324
:1002C8000008F400840A0008F500E030F723013044
:1002D80083120313BA003A0883160313EC076F0856
:1002E8006C02031C782979295C296B08F5006A08D7
:1002F800F400E030F723E030AB221A308312031306
:10030800BB00F830BA00BA0B8729BB0B87298316C4
:100318000313EC01A129103083120313BB0094309E
:10032800BA00BA0B9529BB0B952901308312031328
:10033800BA003A0883160313EC070030831203133C
:10034800BB00831603136F080F3C83120313BA0014
:10035800031CBB033B08803A803C031DB7293A08BD
:10036800831603136C02031CBA29BB298F29831631
:100378000313200883120313BA0003300310BA0DC5
:10038800FF3E031DC229831603132108831203139A
:100398003A07BB003B0883160313E907EC016C0816
:1003A800E03E840083138001013083120313BA00F6
:1003B8003A0883160313EC0708306C02031CE5297E
:1003C800E629D3293228EA3083120313BA003A08FF
:1003D800F400A030BB003B08F500E030BD2303303B
:1003E80083120313BA003A0883160313E000073098
:1003F80083120313BA003A0883160313E1000E3080
:1004080083120313BA003A0883160313E2009C30E0
:1004180083120313BA003A0883160313E300B830B3
:1004280083120313BA003A0883160313E400F0306A
:1004380083120313BA003A0883160313E500E03069
:1004480083120313BA003A0883160313E600F83040
:1004580083120313BA003A0883160313E700E03047
:10046800AB2232280A2883120313A6000510A20122
:10047800A3018312031326088039F6007608A0002A
:10048800803020060319492A4D2A831203130515C3
:10049800502A83120313051105142130F600F60BB8
:1004A800532A8312031305102608F6007607F7006F
:1004B8007708A6000130A2070318A30A0030A30793
:1004C8002308803AFF0080307F02031D6D2A083020
:1004D8002202031C702A712A3D2A83120313A401E5
:1004E800A50175088039F600760883120313A10068
:1004F800803021060319812A852A831203130515E2
:10050800882A83120313051105142130F600F60B0F
:100518008B2A8312031305107508F6007607F70077
:100528007708F5000130A4070318A50A0030A507CD
:100538002508803AFF0080307F02031DA52A083075
:100548002402031CA82AA92A752A23240800831236
:100558000313B5002D3084000830FF008313800199
:10056800840AFF0BB22A8030A7002708B600B7011B
:10057800B8013808073CA700A70A370AA8003808B6
:100588003507A9002908840000083605AA00AB0130
:10059800D02A0310AA0DAB0DA80BCD2AD62A2B0DF5
:1005A800AB0CAA0CA70BD32A831203132A08AC009E
:1005B80037082D3E84002C08831380040130A700DF
:1005C8002708B80708303802031CEB2AEC2ABD2A92
:1005D8003608A7000310270CA8002808B600013029
:1005E800A7002708B70708303702031CFC2AFD2A92
:1005F800BC2AB90139082D3E840083130008A700DE
:100608002708F5003908013E372201308312031309
:10061800A7002708B90708303902031C142B152B2B
:10062800FE2A080083120313A201F51F1C2B1D2BA1
:10063800242BF409F509F40A0319F50AA201A20A00
:10064800F71F272B282B312BF609F709F60A031970
:10065800F70A0130A0002008A206A301A40174082B
:1006680075040319382B392B702BA101A10A472BCC
:1006780001300310F40DF50DFF3E031D3D2B013035
:10068800A0002008A107F51F4A2B4B2B3C2B01305B
:100698000310A30DA40DFF3E031D4C2B7508770214
:1006A800031D582B74087602031C5B2B5C2B632BF1
:1006B8007408F6027508031CF703F70223140130C7
:1006C8000310F50CF40CFF3E031D642B0130A1024E
:1006D800031D6F2B702B4B2B22080319742B752BC2
:1006E8007A2BA309A409A30A0319A40A2408F5006C
:1006F8002308F40008008B130B1C832B842BB52BC9
:1007080083120313061E892B8A2BB42B831603131B
:100718006D080319902B912B9B2B6D080319952BB2
:10072800972B0130982B0030F0007008ED00013055
:10073800F0007008EE076E080339F1007108EE004A
:10074800AE2B0D30F100FB30F000F00BA92BF10BB4
:10075800A92BAE2B83120313061AB32BB42BA52B8C
:100768000B108B1773088A00720E8300FE0E7E0E24
:100778000900F7007708840083138001770A840052
:1007880080017708023E840080017708033E8400D8
:1007980080017708043E840080017708053E8400C4
:1007A80080017708063E840080017708073E8400B0
:1007B80080010730F6007408840076088000023053
:1007C800F600740A840076088000750884008001A9
:1007D8000230F600750A8400760880008316031339
:1007E800EF01EF0A0800F600750A83120313A00050
:1007F8008030A1000030A200042C220DA20CA10C14
:10080800A00B012C831203132108A3007408760798
:10081800A400240884002308831380040800F50139
:10082800F50A0C303722F5010930372207308312D8
:100838000313A7002708F5000B303722080083129E
:10084800031385142130F400F40B282C83120313AE
:100858008510080064008001840A04060319003426
:0A08680004062F2C01340234013481
:02400E0050FF61
:00000001FF
